{
  "_format": "hh-sol-artifact-1",
  "contractName": "LoanManager",
  "sourceName": "contracts/LoanManager.sol",
  "abi": [
    {
      "inputs": [
        {
          "internalType": "address",
          "name": "_buyer",
          "type": "address"
        },
        {
          "internalType": "address",
          "name": "_pluginAddress",
          "type": "address"
        },
        {
          "internalType": "uint256",
          "name": "_loanId",
          "type": "uint256"
        }
      ],
      "name": "acceptLoan",
      "outputs": [],
      "stateMutability": "nonpayable",
      "type": "function"
    },
    {
      "inputs": [
        {
          "internalType": "string",
          "name": "daoName",
          "type": "string"
        },
        {
          "internalType": "address",
          "name": "owner",
          "type": "address"
        },
        {
          "internalType": "address",
          "name": "pluginAddress",
          "type": "address"
        },
        {
          "internalType": "address",
          "name": "collateralAddress",
          "type": "address"
        },
        {
          "internalType": "address",
          "name": "principalAddress",
          "type": "address"
        },
        {
          "internalType": "uint256",
          "name": "amountCollateral",
          "type": "uint256"
        },
        {
          "internalType": "uint256",
          "name": "amountPrincipal",
          "type": "uint256"
        },
        {
          "internalType": "uint256",
          "name": "duration",
          "type": "uint256"
        }
      ],
      "name": "createLoan",
      "outputs": [],
      "stateMutability": "nonpayable",
      "type": "function"
    },
    {
      "inputs": [
        {
          "internalType": "uint256",
          "name": "_id",
          "type": "uint256"
        }
      ],
      "name": "getLoan",
      "outputs": [
        {
          "components": [
            {
              "internalType": "string",
              "name": "daoName",
              "type": "string"
            },
            {
              "internalType": "address",
              "name": "owner",
              "type": "address"
            },
            {
              "internalType": "address",
              "name": "pluginAddress",
              "type": "address"
            },
            {
              "internalType": "address",
              "name": "collateralAddress",
              "type": "address"
            },
            {
              "internalType": "address",
              "name": "principalAddress",
              "type": "address"
            },
            {
              "internalType": "uint256",
              "name": "amountCollateral",
              "type": "uint256"
            },
            {
              "internalType": "uint256",
              "name": "amountPrincipal",
              "type": "uint256"
            },
            {
              "internalType": "uint256",
              "name": "duration",
              "type": "uint256"
            },
            {
              "internalType": "uint256",
              "name": "status",
              "type": "uint256"
            }
          ],
          "internalType": "struct LoanManager.Loan",
          "name": "",
          "type": "tuple"
        }
      ],
      "stateMutability": "view",
      "type": "function"
    },
    {
      "inputs": [
        {
          "internalType": "uint256",
          "name": "",
          "type": "uint256"
        }
      ],
      "name": "loans",
      "outputs": [
        {
          "internalType": "string",
          "name": "daoName",
          "type": "string"
        },
        {
          "internalType": "address",
          "name": "owner",
          "type": "address"
        },
        {
          "internalType": "address",
          "name": "pluginAddress",
          "type": "address"
        },
        {
          "internalType": "address",
          "name": "collateralAddress",
          "type": "address"
        },
        {
          "internalType": "address",
          "name": "principalAddress",
          "type": "address"
        },
        {
          "internalType": "uint256",
          "name": "amountCollateral",
          "type": "uint256"
        },
        {
          "internalType": "uint256",
          "name": "amountPrincipal",
          "type": "uint256"
        },
        {
          "internalType": "uint256",
          "name": "duration",
          "type": "uint256"
        },
        {
          "internalType": "uint256",
          "name": "status",
          "type": "uint256"
        }
      ],
      "stateMutability": "view",
      "type": "function"
    },
    {
      "inputs": [],
      "name": "totalLoans",
      "outputs": [
        {
          "internalType": "uint256",
          "name": "_value",
          "type": "uint256"
        }
      ],
      "stateMutability": "view",
      "type": "function"
    }
  ],
  "bytecode": "0x608060405234801561001057600080fd5b50610b14806100206000396000f3fe608060405234801561001057600080fd5b50600436106100575760003560e01c8063504006ca1461005c578063a8a1043114610085578063cc952b571461009a578063e1ec3c68146100b2578063eb269031146100da575b600080fd5b61006f61006a3660046106a7565b6100ed565b60405161007c9190610706565b60405180910390f35b6100986100933660046107e9565b610273565b005b6000546100a49081565b60405190815260200161007c565b6100c56100c03660046106a7565b6103aa565b60405161007c999897969594939291906108f8565b6100986100e8366004610959565b61048c565b6101606040518061012001604052806060815260200160006001600160a01b0316815260200160006001600160a01b0316815260200160006001600160a01b0316815260200160006001600160a01b03168152602001600081526020016000815260200160008152602001600081525090565b600082815260016020526040908190208151610120810190925280548290829061018990610995565b80601f01602080910402602001604051908101604052809291908181526020018280546101b590610995565b80156102025780601f106101d757610100808354040283529160200191610202565b820191906000526020600020905b8154815290600101906020018083116101e557829003601f168201915b505050918352505060018201546001600160a01b0390811660208301526002830154811660408301526003830154811660608301526004830154166080820152600582015460a0820152600682015460c0820152600782015460e08201526008909101546101009091015292915050565b60008054600181019091556040518061012001604052808a8152602001896001600160a01b03168152602001886001600160a01b03168152602001876001600160a01b03168152602001866001600160a01b03168152602001858152602001848152602001838152602001600081525060016000838152602001908152602001600020600082015181600001908161030b9190610a1e565b5060208201516001820180546001600160a01b039283166001600160a01b03199182161790915560408401516002840180549184169183169190911790556060840151600384018054918416918316919091179055608084015160048401805491909316911617905560a0820151600582015560c0820151600682015560e0820151600782015561010090910151600890910155505050505050505050565b6001602052600090815260409020805481906103c590610995565b80601f01602080910402602001604051908101604052809291908181526020018280546103f190610995565b801561043e5780601f106104135761010080835404028352916020019161043e565b820191906000526020600020905b81548152906001019060200180831161042157829003601f168201915b50505050600183015460028401546003850154600486015460058701546006880154600789015460089099015497986001600160a01b03968716989587169750938616959092169390929089565b600081815260016020526040808220815161012081019092528054829082906104b490610995565b80601f01602080910402602001604051908101604052809291908181526020018280546104e090610995565b801561052d5780601f106105025761010080835404028352916020019161052d565b820191906000526020600020905b81548152906001019060200180831161051057829003601f168201915b505050918352505060018201546001600160a01b039081166020830152600283015481166040808401919091526003840154821660608085019190915260048086015484166080860152600586015460a080870191909152600687015460c0870152600787015460e08701526008909601546101009095019490945285820151908601519486015191516337e6662b60e01b81529483169385019390935260248401528781166044840152929350909116906337e6662b90606401600060405180830381600087803b15801561060257600080fd5b505af1158015610616573d6000803e3d6000fd5b50505050604081810151608083015160c0840151925163a415bcad60e01b81526001600160a01b039182166004820152602481019390935260016044840152600060648401528681166084840152169063a415bcad9060a401600060405180830381600087803b15801561068957600080fd5b505af115801561069d573d6000803e3d6000fd5b5050505050505050565b6000602082840312156106b957600080fd5b5035919050565b6000815180845260005b818110156106e6576020818501810151868301820152016106ca565b506000602082860101526020601f19601f83011685010191505092915050565b60208152600082516101208060208501526107256101408501836106c0565b9150602085015161074160408601826001600160a01b03169052565b5060408501516001600160a01b03811660608601525060608501516001600160a01b03811660808601525060808501516001600160a01b03811660a08601525060a085015160c085015260c085015160e085015260e0850151610100818187015280870151838701525050508091505092915050565b634e487b7160e01b600052604160045260246000fd5b80356001600160a01b03811681146107e457600080fd5b919050565b600080600080600080600080610100898b03121561080657600080fd5b883567ffffffffffffffff8082111561081e57600080fd5b818b0191508b601f83011261083257600080fd5b813581811115610844576108446107b7565b604051601f8201601f19908116603f0116810190838211818310171561086c5761086c6107b7565b816040528281528e602084870101111561088557600080fd5b82602086016020830137600060208483010152809c5050505050506108ac60208a016107cd565b96506108ba60408a016107cd565b95506108c860608a016107cd565b94506108d660808a016107cd565b979a969950949793969560a0850135955060c08501359460e001359350915050565b600061012080835261090c8184018d6106c0565b6001600160a01b039b8c166020850152998b1660408401525050958816606087015293909616608085015260a084019190915260c083015260e08201939093526101000191909152919050565b60008060006060848603121561096e57600080fd5b610977846107cd565b9250610985602085016107cd565b9150604084013590509250925092565b600181811c908216806109a957607f821691505b6020821081036109c957634e487b7160e01b600052602260045260246000fd5b50919050565b601f821115610a1957600081815260208120601f850160051c810160208610156109f65750805b601f850160051c820191505b81811015610a1557828155600101610a02565b5050505b505050565b815167ffffffffffffffff811115610a3857610a386107b7565b610a4c81610a468454610995565b846109cf565b602080601f831160018114610a815760008415610a695750858301515b600019600386901b1c1916600185901b178555610a15565b600085815260208120601f198616915b82811015610ab057888601518255948401946001909101908401610a91565b5085821015610ace5787850151600019600388901b60f8161c191681555b5050505050600190811b0190555056fea2646970667358221220c5b32fba01b7de049db24d160b53759e3ed240bcb8072189840d8b5e8c53b1a064736f6c63430008110033",
  "linkReferences": {},
  "deployedLinkReferences": {}
}